:060000000C9469000C9451
:1000060000000C9400000C9400000C9400000C946A
:1000160000000C9400000C9400000C9400000C945A
:1000260000000C9400000C9400000C9400000C944A
:1000360000000C9400000C9400000C9400000C943A
:1000460000000C9400000C9400000C9400000C942A
:1000560000000C9400000C9400000C9400000C941A
:1000660000001027E80364000A00010000100001E8
:100076001000010003030302020C00080001000641
:100086000E1D1F1E1C1E1F0E0E1D1F1F1E1F1F0EC8
:100096000E171F1F0F1F1F0E0E171F0F070F1F0E06
:1000A60048656C6C6F004D72205061634D616E0047
:1000B6000000080001038600080009038E000800FE
:1000C60011039600080019039E000000F894EE271D
:1000D600EFBBF1E0F5BFE5BFE8EBF0E08591959168
:1000E600009761F0A591B59105901590BF01F001BB
:1000F60005900D920197E1F7FB01F0CFEFEFEDBF11
:10010600E8E0EEBFC0E0D3E00C9462012C978CE0EF
:1001160060E070E0EAE7F0E05DD11A93519A509AF8
:10012600529A539A549A559AA2E3B0E05FD110E0DE
:100136001C3070F4A2E0B0E059D1E12FF0E0DE010E
:100146001196AE0FBF1FAC910FD00BD01F5FF0CF33
:10015600ECE0E0930003A09100031DD018812D96DA
:100166000895599A599808951A931A2F13FF02C0A1
:100176005D9A01C05D9812FF02C05C9A01C05C984E
:1001860011FF02C05B9A01C05B9810FF02C05A9A29
:1001960001C05A988DC01A930A930A2F589804C022
:1001A6001A930A930A2F589AA2E0B0E01FD1E02FC3
:1001B600E07F1E2F12951F70A12FD6DFD2DFE02F12
:1001C600EF701E2FA12FD0DFA2E0B0E00FD1C9DF64
:1001D600099119910895F4D09D0110E0E12F1F5F58
:1001E600F0E0E20FF31FA491DBDFE12FF0E0E20F76
:1001F600F31FE491E03091F7E8D0249608951A931E
:100206000A931A2F0A81E12FF0E0309719F4A02FF4
:10021600A05814C0E130A0E0FA0719F4A02FA054AA
:100226000DC0E230A0E0FA0719F4A02FAC5606C0C4
:10023600E330A0E0FA0719F4A02FAC52ACDF198125
:10024600088123960895BCD09D010C81E02FEE0F06
:10025600EE0FEE0FE05CAE2F9EDF10E0183040F49C
:10026600D901EE27A10FBE1FAC919ADF1F5FF6CF13
:10027600A0E891DFAAD0259608951A931A2FE12FA8
:10028600E064E0937C0083E08A95F1F7E0917A00E0
:10029600E064E0937A00E0917A00E071E1F3E091A6
:1002A6007A00E061E0937A00E0917800F0917900BD
:1002B60019910895A0E0E1DFDF0198D00895E1E00B
:1002C600E0937E00E0E4E0937C00E3E8E0937A00CC
:1002D600E0E0E0937B001ADFE0E0EA93A1E0B3E020
:1002E600B2DFE1E0EA93A9E0B3E0ADDFE2E0EA9352
:1002F600A1E1B3E0A8DFE3E0EA93A9E1B3E0A3DF7D
:10030600E5E0EA93A0E07BDFA6EAB0E064DFE3E0A5
:10031600EA93A1E074DFACEAB0E05DDFE0E0E093F1
:100326002103A0912103A8309CF433D0A0E038DF4C
:10033600C1DF2FD0A0E234DFA1E031D0A0E05FDF43
:10034600A0E22EDFE0912103EF5FE0932103E9CFE6
:10035600E7E0E0932103A0912103A030C4F0E091EF
:100366002103EE0FEF5FEA93A1E049DFA2E017D089
:100376001ED021D0A1E043DFA3E012DF9BDF1BD01C
:1003860016D0E0912103E150E0932103E4CFB8CFEA
:10039600FFCFE0912103EE0FEA93A0E030CF00DF1C
:1003A60089DFE0912103EE0FEF5FEA930895A1E064
:1003B60026DFA0E2F5CEE0912103EE0FEA93089541
:1003C6003A932A931A930A9308953B812A811981B5
:1003D60008810895AF93BF93DB01AC0FBD1F059055
:1003E6000D928A95E1F7BF91AF910895109639F075
:1003F600A8958AEF90E00197F1F71197C9F708954C
:00000001FF
